{
 "cells": [
  {
   "cell_type": "code",
   "execution_count": 1,
   "metadata": {},
   "outputs": [],
   "source": [
    "############## PLEASE RUN THIS CELL FIRST! ###################\n",
    "\n",
    "# import everything and define a test runner function\n",
    "from importlib import reload\n",
    "from helper import run\n",
    "import ecc\n",
    "import helper\n",
    "import tx\n",
    "import script"
   ]
  },
  {
   "cell_type": "markdown",
   "metadata": {},
   "source": [
    "### Check a txn for positive fee"
   ]
  },
  {
   "cell_type": "code",
   "execution_count": 62,
   "metadata": {},
   "outputs": [
    {
     "name": "stdout",
     "output_type": "stream",
     "text": [
      "True\n"
     ]
    }
   ],
   "source": [
    "from tx import Tx\n",
    "from io import BytesIO\n",
    "raw_tx = ('0100000001813f79011acb80925dfe69b3def355fe914bd1d96a3f5f71bf8303c6a989c7d1000000006b483045022100ed81ff192e75a3fd2304004dcadb746fa5e24c5031ccfcf21320b0277457c98f02207a986d955c6e0cb35d446a89d3f56100f4d7f67801c31967743a9c8e10615bed01210349fc4e631e3624a545de3f89f5d8684c7b8138bd94bdd531d2e213bf016b278afeffffff02a135ef01000000001976a914bc3b654dca7e56b04dca18f2566cdaf02e8d9ada88ac99c39800000000001976a9141c4bc762dd5423e332166702cb75f40df79fea1288ac19430600')\n",
    "stream = BytesIO(bytes.fromhex(raw_tx))\n",
    "transaction = Tx.parse(stream)\n",
    "print(transaction.fee() >= 0)"
   ]
  },
  {
   "cell_type": "code",
   "execution_count": 63,
   "metadata": {},
   "outputs": [
    {
     "data": {
      "text/plain": [
       "tx: 452c629d67e41baec3ac6f04fe744b4b9617f8f859c63b3002f8684e7a4fee03\n",
       "version: 1\n",
       "tx_ins:\n",
       "d1c789a9c60383bf715f3f6ad9d14b91fe55f3deb369fe5d9280cb1a01793f81:0\n",
       "tx_outs:\n",
       "32454049:OP_DUP OP_HASH160 bc3b654dca7e56b04dca18f2566cdaf02e8d9ada OP_EQUALVERIFY OP_CHECKSIG\n",
       "10011545:OP_DUP OP_HASH160 1c4bc762dd5423e332166702cb75f40df79fea12 OP_EQUALVERIFY OP_CHECKSIG\n",
       "locktime: 410393"
      ]
     },
     "execution_count": 63,
     "metadata": {},
     "output_type": "execute_result"
    }
   ],
   "source": [
    "transaction"
   ]
  },
  {
   "cell_type": "markdown",
   "metadata": {},
   "source": [
    "### Check a signature hash works (it's given in this case)"
   ]
  },
  {
   "cell_type": "code",
   "execution_count": 6,
   "metadata": {},
   "outputs": [
    {
     "name": "stdout",
     "output_type": "stream",
     "text": [
      "True\n"
     ]
    }
   ],
   "source": [
    "from ecc import S256Point, Signature\n",
    "sec = bytes.fromhex('0349fc4e631e3624a545de3f89f5d8684c7b8138bd94bdd531d2e213bf016b278a')\n",
    "der = bytes.fromhex('3045022100ed81ff192e75a3fd2304004dcadb746fa5e24c5031ccfcf21320b0277457c98f02207a986d955c6e0cb35d446a89d3f56100f4d7f67801c31967743a9c8e10615bed')\n",
    "z = 0x27e0c5994dec7824e56dec6b2fcb342eb7cdb0d0957c2fce9882f715e85d81a6\n",
    "point = S256Point.parse(sec)\n",
    "signature = Signature.parse(der)\n",
    "print(point.verify(z, signature))"
   ]
  },
  {
   "cell_type": "code",
   "execution_count": 8,
   "metadata": {},
   "outputs": [
    {
     "name": "stdout",
     "output_type": "stream",
     "text": [
      "0x27e0c5994dec7824e56dec6b2fcb342eb7cdb0d0957c2fce9882f715e85d81a6\n"
     ]
    }
   ],
   "source": [
    "from helper import hash256\n",
    "modified_tx = bytes.fromhex('0100000001813f79011acb80925dfe69b3def355fe914bd1d96a3f5f71bf8303c6a989c7d1000000001976a914a802fc56c704ce87c42d7c92eb75e7896bdc41ae88acfeffffff02a135ef01000000001976a914bc3b654dca7e56b04dca18f2566cdaf02e8d9ada88ac99c39800000000001976a9141c4bc762dd5423e332166702cb75f40df79fea1288ac1943060001000000')\n",
    "h256 = hash256(modified_tx)\n",
    "z = int.from_bytes(h256, 'big')\n",
    "print(hex(z))"
   ]
  },
  {
   "cell_type": "code",
   "execution_count": 9,
   "metadata": {},
   "outputs": [
    {
     "data": {
      "text/plain": [
       "tx: 2e783ec25c8dfb008d9662f57a8a6ab26eda9fdcb778bb9111cf162a4c03550c\n",
       "version: 1\n",
       "tx_ins:\n",
       "d1c789a9c60383bf715f3f6ad9d14b91fe55f3deb369fe5d9280cb1a01793f81:0\n",
       "tx_outs:\n",
       "32454049:OP_DUP OP_HASH160 bc3b654dca7e56b04dca18f2566cdaf02e8d9ada OP_EQUALVERIFY OP_CHECKSIG\n",
       "10011545:OP_DUP OP_HASH160 1c4bc762dd5423e332166702cb75f40df79fea12 OP_EQUALVERIFY OP_CHECKSIG\n",
       "locktime: 410393"
      ]
     },
     "execution_count": 9,
     "metadata": {},
     "output_type": "execute_result"
    }
   ],
   "source": [
    "stream2 = BytesIO(modified_tx)\n",
    "transaction2 = Tx.parse(stream2)\n",
    "transaction2"
   ]
  },
  {
   "cell_type": "code",
   "execution_count": 10,
   "metadata": {},
   "outputs": [
    {
     "data": {
      "text/plain": [
       "True"
      ]
     },
     "execution_count": 10,
     "metadata": {},
     "output_type": "execute_result"
    }
   ],
   "source": [
    "from ecc import S256Point, Signature\n",
    "sec = bytes.fromhex('0349fc4e631e3624a545de3f89f5d8684c7b8138bd94bdd531d2e213bf016b278a')\n",
    "der = bytes.fromhex('3045022100ed81ff192e75a3fd2304004dcadb746fa5e24c5031ccfcf21320b0277457c98f02207a986d955c6e0cb35d446a89d3f56100f4d7f67801c31967743a9c8e10615bed')\n",
    "z = 0x27e0c5994dec7824e56dec6b2fcb342eb7cdb0d0957c2fce9882f715e85d81a6\n",
    "point = S256Point.parse(sec)\n",
    "signature = Signature.parse(der)\n",
    "point.verify(z, signature)"
   ]
  },
  {
   "cell_type": "markdown",
   "metadata": {},
   "source": [
    "### Exercise 1\n",
    "\n",
    "Write the `sig_hash` method for the `Tx` class.\n",
    "\n",
    "#### Make [this test](/edit/code-ch07/tx.py) pass: `tx.py:TxTest:test_sig_hash`"
   ]
  },
  {
   "cell_type": "code",
   "execution_count": 11,
   "metadata": {},
   "outputs": [
    {
     "name": "stderr",
     "output_type": "stream",
     "text": [
      ".\n",
      "----------------------------------------------------------------------\n",
      "Ran 1 test in 0.003s\n",
      "\n",
      "OK\n"
     ]
    }
   ],
   "source": [
    "# Exercise 1\n",
    "\n",
    "reload(tx)\n",
    "run(tx.TxTest(\"test_sig_hash\"))"
   ]
  },
  {
   "cell_type": "markdown",
   "metadata": {},
   "source": [
    "### Exercise 2\n",
    "\n",
    "Write the `verify_input` method for the `Tx` class. You will want to use the `TxIn.script_pubkey()`, `Tx.sig_hash()` and `Script.evaluate()` methods.\n",
    "\n",
    "#### Make [this test](/edit/code-ch07/tx.py) pass: `tx.py:TxTest:test_verify_p2pkh`"
   ]
  },
  {
   "cell_type": "code",
   "execution_count": 12,
   "metadata": {},
   "outputs": [
    {
     "name": "stderr",
     "output_type": "stream",
     "text": [
      ".\n",
      "----------------------------------------------------------------------\n",
      "Ran 1 test in 0.242s\n",
      "\n",
      "OK\n"
     ]
    }
   ],
   "source": [
    "# Exercise 2\n",
    "\n",
    "reload(tx)\n",
    "run(tx.TxTest(\"test_verify_p2pkh\"))"
   ]
  },
  {
   "cell_type": "markdown",
   "metadata": {},
   "source": [
    "### Construct a TXN\n",
    "\n",
    "#### pay 0.1tBTC from\n",
    "#### mzx5YhAH9kNHtcN481u6WkjeHjYtVeKVh2 \n",
    "#### to\n",
    "#### mnrVtF8DWjMu839VW3rBfgYaAfKk8983Xf"
   ]
  },
  {
   "cell_type": "code",
   "execution_count": 39,
   "metadata": {},
   "outputs": [
    {
     "data": {
      "text/plain": [
       "0d6fe5213c0b3291f208cba8bfb59b7476dffacc4e5cb66f6eb20a080843a299:13"
      ]
     },
     "execution_count": 39,
     "metadata": {},
     "output_type": "execute_result"
    }
   ],
   "source": [
    "tx_in"
   ]
  },
  {
   "cell_type": "code",
   "execution_count": 36,
   "metadata": {},
   "outputs": [
    {
     "name": "stdout",
     "output_type": "stream",
     "text": [
      "tx: cd30a8da777d28ef0e61efe68a9f7c559c1d3e5bcd7b265c850ccb4068598d11\n",
      "version: 1\n",
      "tx_ins:\n",
      "0d6fe5213c0b3291f208cba8bfb59b7476dffacc4e5cb66f6eb20a080843a299:13\n",
      "tx_outs:\n",
      "33000000:OP_DUP OP_HASH160 d52ad7ca9b3d096a38e752c2018e6fbc40cdf26f OP_EQUALVERIFY OP_CHECKSIG\n",
      "10000000:OP_DUP OP_HASH160 507b27411ccf7f16f10297de6cef3f291623eddf OP_EQUALVERIFY OP_CHECKSIG\n",
      "locktime: 0\n"
     ]
    }
   ],
   "source": [
    "from helper import decode_base58, SIGHASH_ALL\n",
    "from script import p2pkh_script, Script\n",
    "from tx import TxIn, TxOut, Tx\n",
    "prev_tx = bytes.fromhex('0d6fe5213c0b3291f208cba8bfb59b7476dffacc4e5cb66f6eb20a080843a299')\n",
    "prev_index = 13\n",
    "tx_in = TxIn(prev_tx, prev_index)\n",
    "tx_outs = []\n",
    "change_amount = int(0.33*100000000)\n",
    "change_h160 = decode_base58('mzx5YhAH9kNHtcN481u6WkjeHjYtVeKVh2')\n",
    "change_script = p2pkh_script(change_h160)\n",
    "change_output = TxOut(amount=change_amount, script_pubkey=change_script)\n",
    "target_amount = int(0.1*100000000)\n",
    "target_h160 = decode_base58('mnrVtF8DWjMu839VW3rBfgYaAfKk8983Xf')\n",
    "target_script = p2pkh_script(target_h160)\n",
    "target_output = TxOut(amount=target_amount, script_pubkey=target_script)\n",
    "tx_obj = Tx(1, [tx_in], [change_output, target_output], 0, True)\n",
    "print(tx_obj)"
   ]
  },
  {
   "cell_type": "code",
   "execution_count": 37,
   "metadata": {},
   "outputs": [
    {
     "name": "stdout",
     "output_type": "stream",
     "text": [
      "0100000001813f79011acb80925dfe69b3def355fe914bd1d96a3f5f71bf8303c6a989c7d1000000006a47304402207db2402a3311a3b845b038885e3dd889c08126a8570f26a844e3e4049c482a11022010178cdca4129eacbeab7c44648bf5ac1f9cac217cd609d216ec2ebc8d242c0a012103935581e52c354cd2f484fe8ed83af7a3097005b2f9c60bff71d35bd795f54b67feffffff02a135ef01000000001976a914bc3b654dca7e56b04dca18f2566cdaf02e8d9ada88ac99c39800000000001976a9141c4bc762dd5423e332166702cb75f40df79fea1288ac19430600\n"
     ]
    }
   ],
   "source": [
    "from ecc import PrivateKey\n",
    "from helper import SIGHASH_ALL\n",
    "z = transaction.sig_hash(0)\n",
    "private_key = PrivateKey(secret=8675309)\n",
    "der = private_key.sign(z).der()\n",
    "sig = der + SIGHASH_ALL.to_bytes(1, 'big')\n",
    "sec = private_key.point.sec()\n",
    "script_sig = Script([sig, sec])\n",
    "transaction.tx_ins[0].script_sig = script_sig \n",
    "print(transaction.serialize().hex())"
   ]
  },
  {
   "cell_type": "code",
   "execution_count": 40,
   "metadata": {},
   "outputs": [
    {
     "name": "stdout",
     "output_type": "stream",
     "text": [
      "mn81594PzKZa9K3Jyy1ushpuEzrnTnxhVg\n"
     ]
    }
   ],
   "source": [
    "from ecc import PrivateKey\n",
    "from helper import hash256, little_endian_to_int\n",
    "secret = little_endian_to_int(hash256(b'Jimmy Song secret'))\n",
    "private_key = PrivateKey(secret)\n",
    "print(private_key.point.address(testnet=True))"
   ]
  },
  {
   "cell_type": "code",
   "execution_count": 42,
   "metadata": {},
   "outputs": [
    {
     "data": {
      "text/plain": [
       "0d6fe5213c0b3291f208cba8bfb59b7476dffacc4e5cb66f6eb20a080843a299:13"
      ]
     },
     "execution_count": 42,
     "metadata": {},
     "output_type": "execute_result"
    }
   ],
   "source": [
    "tx_in"
   ]
  },
  {
   "cell_type": "markdown",
   "metadata": {},
   "source": [
    "### Exercise 3\n",
    "\n",
    "Write the `sign_input` method for the `Tx` class.\n",
    "\n",
    "#### Make [this test](/edit/code-ch07/tx.py) pass: `tx.py:TxTest:test_sign_input`"
   ]
  },
  {
   "cell_type": "code",
   "execution_count": 41,
   "metadata": {},
   "outputs": [
    {
     "name": "stderr",
     "output_type": "stream",
     "text": [
      ".\n",
      "----------------------------------------------------------------------\n",
      "Ran 1 test in 0.196s\n",
      "\n",
      "OK\n"
     ]
    }
   ],
   "source": [
    "# Exercise 3\n",
    "\n",
    "reload(tx)\n",
    "run(tx.TxTest(\"test_sign_input\"))"
   ]
  },
  {
   "cell_type": "markdown",
   "metadata": {},
   "source": [
    "### Exercise 4\n",
    "\n",
    "Create a testnet transaction that sends 60% of a single UTXO to `mwJn1YPMq7y5F8J3LkC5Hxg9PHyZ5K4cFv`. The remaining amount minus fees should go back to your own change address. This should be a 1 input, 2 output transaction.\n",
    "\n",
    "You can broadcast the transaction at https://testnet.blockchain.info/pushtx"
   ]
  },
  {
   "cell_type": "code",
   "execution_count": 59,
   "metadata": {},
   "outputs": [
    {
     "name": "stdout",
     "output_type": "stream",
     "text": [
      "True\n"
     ]
    }
   ],
   "source": [
    "# Exercise 4\n",
    "\n",
    "from ecc import PrivateKey\n",
    "from helper import decode_base58, SIGHASH_ALL\n",
    "from script import p2pkh_script, Script\n",
    "from tx import TxIn, TxOut, Tx\n",
    "\n",
    "# create 1 TxIn and 2 TxOuts\n",
    "# 1 of the TxOuts should be back to your address (mhePDRF4ZQHpug4bJm8dikKKv5MVVHFpg4)\n",
    "# the other TxOut should be to this address\n",
    "target_satoshis = 10_000\n",
    "\n",
    "# get the private key from the exercise in Chapter 4\n",
    "# change address should be the address generated from Chapter 4 (mhePDRF4ZQHpug4bJm8dikKKv5MVVHFpg4)\n",
    "change_satoshis = 1822695 - target_satoshis - 1000\n",
    "\n",
    "# get the prev_tx and prev_index from the transaction where you got\n",
    "# some testnet coins (42fc4b277e09abffe535bb48e04b942c19a5fa6688412da384a43d8828f3841b : 1)\n",
    "# create a transaction input for the previous transaction with\n",
    "# the default ScriptSig and sequence\n",
    "prev_tx = bytes.fromhex('240ea9f9d72c14b98b05d00b23c25cbb47348aaadfe5e7e42b726691d5f282b8')\n",
    "prev_index = 0\n",
    "tx_ins = []\n",
    "tx_ins.append(TxIn(prev_tx, prev_index))\n",
    "\n",
    "# target amount should be 60% of the output amount\n",
    "# set the fee to some reasonable amount\n",
    "# change amount = amount from the prev tx - target amount - fee\n",
    "target_address = 'mwJn1YPMq7y5F8J3LkC5Hxg9PHyZ5K4cFv'\n",
    "tx_outs = []\n",
    "h160 = decode_base58(target_address)\n",
    "script_pubkey = p2pkh_script(h160)\n",
    "tx_outs.append(TxOut(target_satoshis, script_pubkey))\n",
    "\n",
    "change_address = 'mhePDRF4ZQHpug4bJm8dikKKv5MVVHFpg4'\n",
    "h160 = decode_base58(change_address)\n",
    "script_pubkey = p2pkh_script(h160)\n",
    "tx_outs.append(TxOut(change_satoshis, script_pubkey))\n",
    "\n",
    "tx_obj = Tx(1, tx_ins, tx_outs, 0, testnet=True)\n",
    "\n",
    "# create a transaction output for the target amount and address\n",
    "# create a transaction output for the change amount and address\n",
    "# create the transaction object\n",
    "\n",
    "# sign the one input in the transaction object using the private key\n",
    "# print the transaction's serialization in hex\n",
    "# broadcast at http://testnet.blockchain.info/pushtx\n",
    "passphrase = b'hooli HOOLI Chicken! Kapow!! 4893'\n",
    "secret = little_endian_to_int(hash256(passphrase))\n",
    "priv=PrivateKey(secret)\n",
    "print(tx_obj.sign_input(0, priv))"
   ]
  },
  {
   "cell_type": "code",
   "execution_count": 60,
   "metadata": {},
   "outputs": [
    {
     "data": {
      "text/plain": [
       "'0100000001b882f2d59166722be4e7e5dfaa8a3447bb5cc2230bd0058bb9142cd7f9a90e24000000006b483045022100a27f81ad9bba804247b8f4b1f4372b03c1d43fd29ac9c2f21551b8270ae179c702206977f50124a36a4548026d6ff5bda21f2153021133a671d9c87fd009ab29c272012102af85c906ccdad9457e3b1860077696f77992f85521c4db806167a1cee0ca8126ffffffff0210270000000000001976a914ad346f8eb57dee9a37981716e498120ae80e44f788acefa41b00000000001976a9141757f72d70de6322f7695624b204ad3d5e799e6f88ac00000000'"
      ]
     },
     "execution_count": 60,
     "metadata": {},
     "output_type": "execute_result"
    }
   ],
   "source": [
    "tx_obj.serialize().hex()\n",
    "# f3666ce32fc49b9c3337c28e02ed5376804b5e3a3f701090f6ad30fc72a390ed is the txid"
   ]
  },
  {
   "cell_type": "markdown",
   "metadata": {},
   "source": [
    "### Exercise 5\n",
    "\n",
    "Advanced: get some more testnet coins from a testnet faucet and create a 2 input, 1 output transaction. 1 input should be from the faucet, the other should be from the previous exercise, the output can be your own address.\n",
    "\n",
    "You can broadcast the transaction at https://testnet.blockchain.info/pushtx"
   ]
  },
  {
   "cell_type": "markdown",
   "metadata": {},
   "source": [
    "##### prev_txn1 f3666ce32fc49b9c3337c28e02ed5376804b5e3a3f701090f6ad30fc72a390ed : 1 (the one created above)\n",
    "##### prev_txn2 d99656697bd43208ef1bb6e512842f1e6482ba25f887b4eb95d818d588dd18fa : 1 (from faucet)"
   ]
  },
  {
   "cell_type": "code",
   "execution_count": 66,
   "metadata": {},
   "outputs": [
    {
     "name": "stdout",
     "output_type": "stream",
     "text": [
      "tx: f1ae466d0892e1b4c8d254f36bdf4b29578f561263be81fd97db3a5d941ea104\n",
      "version: 1\n",
      "tx_ins:\n",
      "f3666ce32fc49b9c3337c28e02ed5376804b5e3a3f701090f6ad30fc72a390ed:1\n",
      "d99656697bd43208ef1bb6e512842f1e6482ba25f887b4eb95d818d588dd18fa:1\n",
      "tx_outs:\n",
      "3674318:OP_DUP OP_HASH160 1757f72d70de6322f7695624b204ad3d5e799e6f OP_EQUALVERIFY OP_CHECKSIG\n",
      "locktime: 0\n"
     ]
    },
    {
     "data": {
      "text/plain": [
       "'0100000002ed90a372fc30adf69010703f3a5e4b807653ed028ec237339c9bc42fe36c66f3010000006a47304402205257dd388df6474297f7c8ed0ac08bcb5bc7c85efed10f4cd1257da173498eb4022017bed0095b8871fa10dca8cfc7cc488985e63b4befd108df2a0e0c3009f2ce51012102af85c906ccdad9457e3b1860077696f77992f85521c4db806167a1cee0ca8126fffffffffa18dd88d518d895ebb487f825ba82641e2f8412e5b61bef0832d47b695696d9010000006a47304402205b677cd42ab1d04790f19401790bf16f70b6e876416b5c674f68c3cd4fd83f8402203b5d4587d84025c6286d32f35d203cc5b7c849e1de131cffe7a839c8c6d31de1012102af85c906ccdad9457e3b1860077696f77992f85521c4db806167a1cee0ca8126ffffffff01ce103800000000001976a9141757f72d70de6322f7695624b204ad3d5e799e6f88ac00000000'"
      ]
     },
     "execution_count": 66,
     "metadata": {},
     "output_type": "execute_result"
    }
   ],
   "source": [
    "# Exercise 5\n",
    "\n",
    "from ecc import PrivateKey\n",
    "from helper import decode_base58, SIGHASH_ALL\n",
    "from script import p2pkh_script, Script\n",
    "from tx import TxIn, TxOut, Tx\n",
    "\n",
    "# Create 2 TxIns, 1 from the Exercise 4 and 1 from a testnet faucet\n",
    "# Creat 1 TxOut to the address above\n",
    "target_address = 'mhePDRF4ZQHpug4bJm8dikKKv5MVVHFpg4'\n",
    "target_satoshis = 1811695 + 1863623 - 1000\n",
    "\n",
    "# get the private key from the exercise in Chapter 4\n",
    "passphrase = b'hooli HOOLI Chicken! Kapow!! 4893'\n",
    "secret = little_endian_to_int(hash256(passphrase))\n",
    "priv=PrivateKey(secret)\n",
    "\n",
    "# get the prev_tx and prev_index from the transaction where you got\n",
    "# some testnet coins\n",
    "# create the first transaction input with the default ScriptSig and\n",
    "# sequence\n",
    "# get the prev_tx and prev_index from the transaction in Exercise 4\n",
    "# create the second transaction input with the default ScriptSig and\n",
    "# sequence\n",
    "tx_ins = []\n",
    "\n",
    "prev_tx1 = bytes.fromhex('f3666ce32fc49b9c3337c28e02ed5376804b5e3a3f701090f6ad30fc72a390ed')\n",
    "prev_index1 = 1\n",
    "tx_ins.append(TxIn(prev_tx1, prev_index1))\n",
    "\n",
    "prev_tx2 = bytes.fromhex('d99656697bd43208ef1bb6e512842f1e6482ba25f887b4eb95d818d588dd18fa')\n",
    "prev_index2 = 1\n",
    "tx_ins.append(TxIn(prev_tx2, prev_index2))\n",
    "\n",
    "# set the fee to some reasonable amount\n",
    "# target amount should be the sum of the inputs - fee\n",
    "# create a transaction output for the amount and address\n",
    "tx_outs = []\n",
    "h160 = decode_base58(target_address)\n",
    "script_pubkey = p2pkh_script(h160)\n",
    "tx_outs.append(TxOut(target_satoshis, script_pubkey))\n",
    "\n",
    "\n",
    "# sign the first input using the private key\n",
    "\n",
    "# sign the second input using the private key \n",
    "\n",
    "# print the transaction's serialization in hex\n",
    "tx_obj = Tx(1, tx_ins, tx_outs, 0, testnet=True)\n",
    "\n",
    "tx_obj.sign_input(0, priv)\n",
    "tx_obj.sign_input(1, priv)\n",
    "print(tx_obj)\n",
    "# broadcast at http://testnet.blockchain.info/pushtx\n",
    "tx_obj.serialize().hex()"
   ]
  },
  {
   "cell_type": "markdown",
   "metadata": {},
   "source": [
    "#### txnid - f1ae466d0892e1b4c8d254f36bdf4b29578f561263be81fd97db3a5d941ea104"
   ]
  },
  {
   "cell_type": "code",
   "execution_count": null,
   "metadata": {},
   "outputs": [],
   "source": []
  }
 ],
 "metadata": {
  "kernelspec": {
   "display_name": "Python 3 (ipykernel)",
   "language": "python",
   "name": "python3"
  },
  "language_info": {
   "codemirror_mode": {
    "name": "ipython",
    "version": 3
   },
   "file_extension": ".py",
   "mimetype": "text/x-python",
   "name": "python",
   "nbconvert_exporter": "python",
   "pygments_lexer": "ipython3",
   "version": "3.10.9"
  }
 },
 "nbformat": 4,
 "nbformat_minor": 4
}
